{
  "_format": "hh-sol-artifact-1",
  "contractName": "AgricultureRegistry",
  "sourceName": "contracts/AgricultureRegistry.sol",
  "abi": [
    {
      "anonymous": false,
      "inputs": [
        {
          "indexed": false,
          "internalType": "uint256",
          "name": "productId",
          "type": "uint256"
        },
        {
          "indexed": false,
          "internalType": "string",
          "name": "name",
          "type": "string"
        },
        {
          "indexed": false,
          "internalType": "string",
          "name": "description",
          "type": "string"
        },
        {
          "indexed": false,
          "internalType": "uint256",
          "name": "quantity",
          "type": "uint256"
        },
        {
          "indexed": false,
          "internalType": "address",
          "name": "owner",
          "type": "address"
        }
      ],
      "name": "ProductAdded",
      "type": "event"
    },
    {
      "anonymous": false,
      "inputs": [
        {
          "indexed": false,
          "internalType": "uint256",
          "name": "productId",
          "type": "uint256"
        },
        {
          "indexed": false,
          "internalType": "string",
          "name": "name",
          "type": "string"
        },
        {
          "indexed": false,
          "internalType": "string",
          "name": "description",
          "type": "string"
        },
        {
          "indexed": false,
          "internalType": "uint256",
          "name": "quantity",
          "type": "uint256"
        }
      ],
      "name": "ProductUpdated",
      "type": "event"
    },
    {
      "inputs": [
        {
          "internalType": "uint256",
          "name": "ProductId",
          "type": "uint256"
        },
        {
          "internalType": "string",
          "name": "_name",
          "type": "string"
        },
        {
          "internalType": "string",
          "name": "_description",
          "type": "string"
        },
        {
          "internalType": "uint256",
          "name": "_quantity",
          "type": "uint256"
        }
      ],
      "name": "addProduct",
      "outputs": [],
      "stateMutability": "nonpayable",
      "type": "function"
    },
    {
      "inputs": [
        {
          "internalType": "uint256",
          "name": "_productId",
          "type": "uint256"
        }
      ],
      "name": "getProductDetails",
      "outputs": [
        {
          "internalType": "string",
          "name": "name",
          "type": "string"
        },
        {
          "internalType": "string",
          "name": "description",
          "type": "string"
        },
        {
          "internalType": "uint256",
          "name": "quantity",
          "type": "uint256"
        },
        {
          "internalType": "address",
          "name": "owner",
          "type": "address"
        }
      ],
      "stateMutability": "view",
      "type": "function"
    },
    {
      "inputs": [],
      "name": "productCount",
      "outputs": [
        {
          "internalType": "uint256",
          "name": "",
          "type": "uint256"
        }
      ],
      "stateMutability": "view",
      "type": "function"
    },
    {
      "inputs": [
        {
          "internalType": "uint256",
          "name": "",
          "type": "uint256"
        }
      ],
      "name": "products",
      "outputs": [
        {
          "internalType": "string",
          "name": "name",
          "type": "string"
        },
        {
          "internalType": "string",
          "name": "description",
          "type": "string"
        },
        {
          "internalType": "uint256",
          "name": "quantity",
          "type": "uint256"
        },
        {
          "internalType": "address",
          "name": "owner",
          "type": "address"
        }
      ],
      "stateMutability": "view",
      "type": "function"
    },
    {
      "inputs": [
        {
          "internalType": "uint256",
          "name": "_productId",
          "type": "uint256"
        },
        {
          "internalType": "string",
          "name": "_name",
          "type": "string"
        },
        {
          "internalType": "string",
          "name": "_description",
          "type": "string"
        },
        {
          "internalType": "uint256",
          "name": "_quantity",
          "type": "uint256"
        }
      ],
      "name": "updateProduct",
      "outputs": [],
      "stateMutability": "nonpayable",
      "type": "function"
    }
  ],
  "bytecode": "0x608060405234801561001057600080fd5b50610d57806100206000396000f3fe608060405234801561001057600080fd5b50600436106100575760003560e01c80636813b53b1461005c5780637acc0b201461008f5780639c083284146100c2578063a227379c146100de578063e0f6ef87146100fa575b600080fd5b610076600480360381019061007191906107aa565b610118565b60405161008694939291906108c0565b60405180910390f35b6100a960048036038101906100a491906107aa565b6102e7565b6040516100b994939291906108c0565b60405180910390f35b6100dc60048036038101906100d79190610a48565b610447565b005b6100f860048036038101906100f39190610a48565b61057d565b005b6101026106b7565b60405161010f9190610ae7565b60405180910390f35b606080600080600080600087815260200190815260200160002060405180608001604052908160008201805461014d90610b31565b80601f016020809104026020016040519081016040528092919081815260200182805461017990610b31565b80156101c65780601f1061019b576101008083540402835291602001916101c6565b820191906000526020600020905b8154815290600101906020018083116101a957829003601f168201915b505050505081526020016001820180546101df90610b31565b80601f016020809104026020016040519081016040528092919081815260200182805461020b90610b31565b80156102585780601f1061022d57610100808354040283529160200191610258565b820191906000526020600020905b81548152906001019060200180831161023b57829003601f168201915b50505050508152602001600282015481526020016003820160009054906101000a900473ffffffffffffffffffffffffffffffffffffffff1673ffffffffffffffffffffffffffffffffffffffff1673ffffffffffffffffffffffffffffffffffffffff1681525050905080600001518160200151826040015183606001519450945094509450509193509193565b600060205280600052604060002060009150905080600001805461030a90610b31565b80601f016020809104026020016040519081016040528092919081815260200182805461033690610b31565b80156103835780601f1061035857610100808354040283529160200191610383565b820191906000526020600020905b81548152906001019060200180831161036657829003601f168201915b50505050509080600101805461039890610b31565b80601f01602080910402602001604051908101604052809291908181526020018280546103c490610b31565b80156104115780601f106103e657610100808354040283529160200191610411565b820191906000526020600020905b8154815290600101906020018083116103f457829003601f168201915b5050505050908060020154908060030160009054906101000a900473ffffffffffffffffffffffffffffffffffffffff16905084565b60405180608001604052808481526020018381526020018281526020013373ffffffffffffffffffffffffffffffffffffffff1681525060008086815260200190815260200160002060008201518160000190805190602001906104ac9291906106bd565b5060208201518160010190805190602001906104c99291906106bd565b506040820151816002015560608201518160030160006101000a81548173ffffffffffffffffffffffffffffffffffffffff021916908373ffffffffffffffffffffffffffffffffffffffff1602179055509050506001600081548092919061053190610b92565b91905055507fffed2a30aabbaef379429a9bcd823ae1a613502b5e867747d60313ab0d8388ee6001548484843360405161056f959493929190610bdb565b60405180910390a150505050565b833373ffffffffffffffffffffffffffffffffffffffff1660008083815260200190815260200160002060030160009054906101000a900473ffffffffffffffffffffffffffffffffffffffff1673ffffffffffffffffffffffffffffffffffffffff1614610621576040517f08c379a000000000000000000000000000000000000000000000000000000000815260040161061890610cae565b60405180910390fd5b600080600087815260200190815260200160002090508481600001908051906020019061064f9291906106bd565b50838160010190805190602001906106689291906106bd565b508281600201819055507fa912cc40a5dbbdbdf6a8e9b2bcdac1717b6af3df58c19d3f5d911bca01216f4b868686866040516106a79493929190610cce565b60405180910390a1505050505050565b60015481565b8280546106c990610b31565b90600052602060002090601f0160209004810192826106eb5760008555610732565b82601f1061070457805160ff1916838001178555610732565b82800160010185558215610732579182015b82811115610731578251825591602001919060010190610716565b5b50905061073f9190610743565b5090565b5b8082111561075c576000816000905550600101610744565b5090565b6000604051905090565b600080fd5b600080fd5b6000819050919050565b61078781610774565b811461079257600080fd5b50565b6000813590506107a48161077e565b92915050565b6000602082840312156107c0576107bf61076a565b5b60006107ce84828501610795565b91505092915050565b600081519050919050565b600082825260208201905092915050565b60005b838110156108115780820151818401526020810190506107f6565b83811115610820576000848401525b50505050565b6000601f19601f8301169050919050565b6000610842826107d7565b61084c81856107e2565b935061085c8185602086016107f3565b61086581610826565b840191505092915050565b61087981610774565b82525050565b600073ffffffffffffffffffffffffffffffffffffffff82169050919050565b60006108aa8261087f565b9050919050565b6108ba8161089f565b82525050565b600060808201905081810360008301526108da8187610837565b905081810360208301526108ee8186610837565b90506108fd6040830185610870565b61090a60608301846108b1565b95945050505050565b600080fd5b600080fd5b7f4e487b7100000000000000000000000000000000000000000000000000000000600052604160045260246000fd5b61095582610826565b810181811067ffffffffffffffff821117156109745761097361091d565b5b80604052505050565b6000610987610760565b9050610993828261094c565b919050565b600067ffffffffffffffff8211156109b3576109b261091d565b5b6109bc82610826565b9050602081019050919050565b82818337600083830152505050565b60006109eb6109e684610998565b61097d565b905082815260208101848484011115610a0757610a06610918565b5b610a128482856109c9565b509392505050565b600082601f830112610a2f57610a2e610913565b5b8135610a3f8482602086016109d8565b91505092915050565b60008060008060808587031215610a6257610a6161076a565b5b6000610a7087828801610795565b945050602085013567ffffffffffffffff811115610a9157610a9061076f565b5b610a9d87828801610a1a565b935050604085013567ffffffffffffffff811115610abe57610abd61076f565b5b610aca87828801610a1a565b9250506060610adb87828801610795565b91505092959194509250565b6000602082019050610afc6000830184610870565b92915050565b7f4e487b7100000000000000000000000000000000000000000000000000000000600052602260045260246000fd5b60006002820490506001821680610b4957607f821691505b60208210811415610b5d57610b5c610b02565b5b50919050565b7f4e487b7100000000000000000000000000000000000000000000000000000000600052601160045260246000fd5b6000610b9d82610774565b91507fffffffffffffffffffffffffffffffffffffffffffffffffffffffffffffffff821415610bd057610bcf610b63565b5b600182019050919050565b600060a082019050610bf06000830188610870565b8181036020830152610c028187610837565b90508181036040830152610c168186610837565b9050610c256060830185610870565b610c3260808301846108b1565b9695505050505050565b7f4f6e6c7920746865206f776e65722063616e20706572666f726d20746869732060008201527f616374696f6e0000000000000000000000000000000000000000000000000000602082015250565b6000610c986026836107e2565b9150610ca382610c3c565b604082019050919050565b60006020820190508181036000830152610cc781610c8b565b9050919050565b6000608082019050610ce36000830187610870565b8181036020830152610cf58186610837565b90508181036040830152610d098185610837565b9050610d186060830184610870565b9594505050505056fea2646970667358221220a560c37a2d11bf37ec64a5076bb4ac5cfcf3802e6f0632da28f1cf789532431a64736f6c634300080a0033",
  "linkReferences": {},
  "deployedLinkReferences": {}
}